:020000040800F2
:100000000000012019220008B9210008BB210008C6
:10001000BD210008BF210008C12100080000000028
:10002000000000000000000000000000C3210008E4
:10003000C521000800000000C7210008C9210008F0
:100040006922000869220008692200086922000864
:100050006922000869220008692200086922000854
:100060006922000869220008692200086922000844
:100070006922000869220008692200086922000834
:100080006922000869220008692200086922000824
:100090006922000869220008692200086922000814
:1000A0006922000869220008692200086922000804
:1000B000692200080000000000000000692200081A
:1000C00069220008692200086922000869220008E4
:1000D00069220008692200086922000869220008D4
:1000E00069220008692200080000000000000000EA
:1000F0000000000000000000000000000000000000
:1001000000000000692200080000000069220008C9
:1001100000000000000000006922000869220008B9
:100120006922000869220008692200086922000883
:10013000692200080000000000000000000000002C
:1001400069220008692200086922000800000000F6
:100150006922000869220008692200086922000853
:1001600069220008692200086922000800000000D6
:100170006922000869220008000000000000000059
:1001800069220008692200086922000800000000B6
:1001900010B5054C237833B9044B13B10448AFF3C1
:1001A00000800123237010BD10000020000000001B
:1001B000C422000808B5034B1BB103490348AFF341
:1001C000008008BD0000000014000020C4220008C8
:1001D000104B1B680BB90120704710B504464FF453
:1001E0007A70B0FBF3F30C4A1068B0FBF3F000F048
:1001F000A3FB68B90F2C01D901200AE00022214697
:100200004FF0FF3000F064FB024B5C60002000E028
:10021000012010BD000000200800002010B50320C0
:1002200000F044FB0020FFF7D3FF10B1012420466B
:1002300010BD044601F0B0FEF9E70000034A136860
:10024000034909680B441360704700BF2C0000206D
:1002500000000020014B1868704700BF2C000020F0
:1002600038B50446FFF7F6FF0546B4F1FF3F02D06C
:10027000044B1B681C44FFF7EDFF401BA042FAD360
:1002800038BD00BF0000002030B583B000230193CB
:10029000002800F0DE800446436D03B323689A68AB
:1002A00012F0005F05D09A6822F0204222F03F024F
:1002B0009A602268936813F0805F1DD1936823F0E1
:1002C000104323F03F0343F080539360624B1B685D
:1002D0009B09624AA2FB03239B09019309E001F0F9
:1002E00073FE0023A36584F85030D7E7019B013BE0
:1002F0000193019B002BF9D123689A6812F0805F6B
:1003000078D1626D42F010026265A26D42F0010286
:10031000A26501209A6812F0040F6DD00121626D70
:1003200012F0100F40F08E80002940F08B80626D3B
:1003300022F4817242F0020262659B6813F0010FA1
:100340000BD1474B9B6813F0010F06D163684549F9
:100350008A6822F47C1213438B60627E636B43EAEB
:100360004233E2681343A268134394F8202043EA1F
:100370000243012A42D0A26A22B102F47072E16AF9
:100380000A4313432168CD68374A2A401343CB60A0
:1003900023689A6812F0040F35D001219A6812F090
:1003A000080F32D00122B1B9AAB9217E94F83020C9
:1003B000520042EA8131DA6822F4804222F00202DD
:1003C0000A43DA6094F83830012B20D02268136990
:1003D00023F0010313612369012B2AD02268136BD8
:1003E00023F00F031363636D23F0030343F0010352
:1003F00063652CE000208DE7002190E7626A013AF6
:1004000043EA4243B7E70021C8E70022CBE721686F
:100410000B6923F4FF6323F00403E26B256C2A438A
:10042000656C2A43A56C2A43134343F001030B6117
:10043000D1E721680B6B23F00F03E269013A134304
:100440000B63D0E7636D43F010036365012003B0D5
:1004500030BD0120FBE700BF08000020632D3E05F2
:10046000000004500003045007C0F0FFF0B482B055
:100470000022019290F85020012A00F010820346D9
:10048000012280F850200268926812F0040F0AD00E
:10049000426D42F0200242650120002283F8502084
:1004A00002B0F0BC70474A68052A09D8023A032A0C
:1004B00000F28E80DFE802F0028285880C224A601A
:1004C0001E684D680C6830362A0A920002F00C0251
:1004D000B05805F01F051F27AF4020EA0700C4F3FE
:1004E0008464AC402043B0501A68906810F0040F48
:1004F00071D00120946814F0080F6ED0012450BB15
:100500004CBB0E688D681432700E800000F0040041
:100510001458C6F304560727B74024EA0704B54029
:100520002C4314504C691868C268C2F3C1025200CF
:1005300004FA02F20D69042D51D00E68603050F8B3
:100540002570B64C3C4006F0F8463243144344F064
:10055000004440F825401868826812F0010F16D157
:100560000A68CD68D0F8B040C2F3120624EA060447
:1005700005F01806AA4DF5402A40C2F312022243A4
:10058000C0F8B020C868A74A904200F083800A688B
:10059000A5490A4200F07F81A449896801F0E0740E
:1005A000A348824200F01481A248824200F04C81AC
:1005B000A148824200F05C8100206EE712224A606E
:1005C0007EE718224A607BE74FF480724A6077E743
:1005D00006224A6074E700208CE700248FE7026E51
:1005E000046EC4F384640A68C2F312057DBBC2F3CF
:1005F0008462944230D01C68626E606EC0F3846086
:100600000A68C2F3120565BBC2F3846290422DD022
:100610001C68A26EA06EC0F384600A68C2F3120563
:100620004DBBC2F3846290422AD01C68E26EE06E39
:10063000C0F384600A68C2F3120535BBC2F384625A
:10064000904288D1E26E22F00042E26683E792FA9D
:10065000A2F2B2FA82F2CCE7026E22F00042026607
:10066000C9E792FAA2F2B2FA82F2CFE7626E22F002
:1006700000426266CCE792FAA2F2B2FA82F2D2E7C4
:10068000A26E22F00042A266CFE792FAA2F2B2FA7C
:1006900082F2D5E71D680A68C2F3120696BB900E77
:1006A000013000F01F0009288CBF00200120002825
:1006B00052D09EBB940E0134A40604F0F844B6BB9D
:1006C000900E013000F01F070120B8400443C6BB64
:1006D000920E013202F01F0202EB42021205224387
:1006E0008C681435500E800000F004002E58C2F3C0
:1006F00004520727974026EA070604FA02F232431B
:100700002A5044E792FAA2F0B0FA80F0013000F0EB
:100710001F0009288CBF00200120C8E792FAA2F42C
:10072000B4FA84F40134A40604F0F844C7E792FA5A
:10073000A2F0B0FA80F0013000F01F070120B840AD
:10074000C4E792FAA2F2B2FA82F2013202F01F0278
:1007500002EB42021205C2E7CEB9940E0134A406A0
:1007600004F0F844E6B9900E013000F01F070120B4
:10077000B8400443F6B9900E013000F01F0000EBC2
:1007800040021E3A120542F000722243A8E792FA94
:10079000A2F4B4FA84F40134A40604F0F844E1E7C6
:1007A00092FAA2F0B0FA80F0013000F01F070120A9
:1007B000B840DEE792FAA2F0B0FA80F0013000F023
:1007C0001F0000EB40021E3A120542F00072DCE707
:1007D00011F4000F7FF4E8AE1968184A914201D075
:1007E00000205AE644F400021048816821F0E071CC
:1007F0000A438260124A126892091249A1FB02124E
:10080000920902EB42029100019102E0019A013A41
:100810000192019A002AF9D100203EE600F0FF0380
:10082000FFFF070000007F40000008800003045025
:10083000000052C7000084CB01000080000004507B
:1008400008000020632D3E0511F0807F7FF4B0AEDC
:100850001968144A914201D000201EE644F08072CB
:100860001148816821F0E0710A438260002014E69B
:1008700011F4800F11D119680A4A914201D0002069
:100880000BE644F480020848816821F0E0710A43D5
:100890008260002001E60020FFE50020FDE5022047
:1008A000FEE500BF0000045000030450074AD3686F
:1008B00023F4E0631B041B0C000200F4E060184307
:1008C00040F0BF6040F40030D060704700ED00E0C1
:1008D00030B4174BDB68C3F30223C3F10704042CC5
:1008E00028BF04241D1D062D18D9033B4FF0FF35EA
:1008F00005FA04F421EA0401994005FA03F322EA17
:100900000303194300280BDB0901C9B200F1604061
:1009100000F5614080F8001330BC70470023E5E724
:1009200000F00F000901C9B2024B1954F4E700BFEF
:1009300000ED00E014ED00E00138B0F1807F0AD254
:10094000064B5860064AF02182F823100020986078
:1009500007221A6070470120704700BF10E000E0D6
:1009600000ED00E070B110B50446037933B1022305
:100970002371002020610123237110BD437101F018
:1009800055FBF4E701207047F8B54379012B00F0DF
:10099000948016460D4604460123437102230371D9
:1009A0000B68042B32D02B69012B79D02068C36BE4
:1009B00006F010020721914023EA01012B68AE687E
:1009C0003343EE68334393400B43C36320680368AB
:1009D0004FF48041914023EA0103036020680368DB
:1009E00040F6FC71914023EA01016B6893400B4390
:1009F000036020680368C02101FA02F223EA0202C0
:100A000002600123237100206071F8BD72B1236878
:100A10005B6B002B25DAFFF71DFC0128F7D9236952
:100A200043F00803236103202071EEE7FFF712FC77
:100A3000074623685B6B13F4004F0BD0FFF70AFCEB
:100A4000C01B0128F5D9236943F008032361032063
:100A50002071DAE70120FFF703FC2368AA691A6412
:100A600005E00120FFF7FCFB2368AA695A642068AF
:100A7000826C06F0100140F2FF338B4022EA030241
:100A8000EB698B401A4382642068C36CFF228A4062
:100A900023EA02032A6A02FA01F10B43C36482E7E4
:100AA00021688A6B06F010001F23834022EA0302AC
:100AB0006B69834013438B6378E70220A5E700004E
:100AC000F0B482B0002336E0042400E00024B440F7
:100AD0003C4302355B4E46F825405B4C2568D443C9
:100AE00004EA05064F6817F4803F01D042EA050684
:100AF000554D2E606D6804EA05064F6817F4003FF7
:100B000001D042EA0506504D6E60AD6804EA050664
:100B10004F6817F4801F01D042EA05064A4DAE60C7
:100B2000ED682C404E6816F4001F01D042EA05041F
:100B3000454AD46001330A6832FA03F47ED00124B6
:100B40009C402240F6D04D68022D01D0122D10D1CC
:100B5000DE08083650F826C003F00705AF000F2561
:100B6000BD402CEA050C0D69BD4045EA0C0540F876
:100B7000265006685F000325BD40ED4305EA060CDC
:100B80004E6806F00306BE4046EA0C0606604E6854
:100B900006F1FF3CBCF1010F03D9112E01D0122E3A
:100BA00010D1866805EA060CCE68BE4046EA0C06FF
:100BB0008660466826EA04044E68C6F300169E4026
:100BC00026434660C46825408C68BC402C43C46002
:100BD0004C6814F0805FADD01C4C256E45F00105CB
:100BE0002566246E04F001040194019C9D08AE1C4E
:100BF000144C54F8267003F00304A6000F24B440EC
:100C000027EA0407B0F1904F3FF460AF104CA042C8
:100C10000ED004F58064A0420CD004F58064A0429C
:100C20000AD004F58064A0423FF44EAF07244EE79B
:100C300001244CE702244AE7032448E702B0F0BC51
:100C4000704700BF00000140000401400010024056
:100C5000000400480AB98162704781617047000052
:100C6000024B186800F4C060704700BF007000407D
:100C7000B0F5007F0FD01F4B1B6803F4C063B3F5C2
:100C8000806F34D01B4A136823F4C06343F480633D
:100C9000136000207047174B1B6803F4C063B3F563
:100CA000007F22D0134A136823F4C06343F4007317
:100CB0001360114B1A68322303FB02F30F4AA2FBA5
:100CC00003239B0C013300E0013B0A4A526912F4F2
:100CD000806F01D0002BF7D1064B5B6913F4806F56
:100CE00001D100207047032070470020704700208A
:100CF000704700BF007000400800002083DE1B43E7
:100D000030B583B00546204B9B6D13F0805F0BD050
:100D1000FFF7A6FFB0F5007F17D0802D1FD82DD08C
:100D2000702D2DD000211BE0174CA36D43F0805394
:100D3000A365A36D03F080530193019BFFF790FF20
:100D4000A36D23F08053A365E4E7802D03D9A02D84
:100D500003D9022104E0002102E0012100E0032187
:100D60000A4A136823F007030B431360136803F068
:100D700007038B4206D0012003B030BD0221EFE70C
:100D80000121EDE70020F7E70010024000200240BB
:100D9000284A9368D26802F0030213F00C030AD0C9
:100DA0000C2B06D0042B1FD0082B20D0002002468D
:100DB00010E0012AF6D11F4A126812F0080F0CD178
:100DC0001C4AD2F89420C2F303221B4951F8222076
:100DD00043B100200C2B0DD07047164A1268C2F3A5
:100DE0000312F2E71046F5E714480022F2E7144830
:100DF0000022EFE70F4BDB6803F00303022B15D053
:100E0000032B15D00B4BD868C0F302100130D96802
:100E1000C1F3062102FB01F2B2FBF0F2D868C0F385
:100E2000416001304000B2FBF0F0D5E7034AE9E74A
:100E3000034AE7E700100240E02200080024F40023
:100E400000127A00002800F00883F0B583B0044651
:100E5000AD4B9D6805F00C05DE6806F003060368DF
:100E600013F0100F5ED0E5B10C2D18D0A369002B44
:100E700000F0B880A44A136843F001031360FFF741
:100E8000E9F90746A04B1B6813F0020F40F097806A
:100E9000FFF7E0F9C01B0228F4D90323E9E2012E91
:100EA000E4D1994B1B6813F0020F03D0A369002B08
:100EB00000F0D682206A944B1B6813F0080F5ED0B6
:100EC000914B1B6803F0F00398425FD9FFF718FFBE
:100ED000002840F0C7828C4B1A6842F008021A6062
:100EE0001A6822F0F002216A0A431A605A6822F452
:100EF0007F42E16942EA01225A60FFF749FF824BD3
:100F00009B68C3F30313814AD35C03F01F03D840EB
:100F10007F4B18607F4B1868FFF75AF9034600288B
:100F200040F0A782236813F0010F7AD0082D6FD00C
:100F30000C2D6BD06368B3F5803F00F09180B3F562
:100F4000A02F00F09380704B1A6822F480321A6050
:100F50001A6822F480221A606368002B00F09380E4
:100F6000FFF778F90746684B1B6813F4003F58D128
:100F7000FFF770F9C01B6428F5D9032379E2624BAF
:100F8000D3F894301B0903F0F0039DE75E4B1A6819
:100F900042F008021A601A6822F0F002216A0A433D
:100FA0001A605A6822F47F42E16942EA01225A60DB
:100FB000206AFFF7A5FE00289FD0012359E2524B7B
:100FC0001A6842F008021A601A6822F0F002216AD8
:100FD0000A431A605A6822F47F42E16942EA012218
:100FE0005A609FE7484A136823F001031360FFF734
:100FF00031F90746444B1B6813F0020F92D0FFF7FC
:1010000029F9C01B0228F5D9032332E2032E91D11E
:101010003D4B1B6813F4003F03D06368002B00F0C6
:101020002382236813F0020F4FD0042D3CD00C2DE7
:1010300038D0E368002B78D0334A136843F48073C8
:101040001360FFF707F906462F4B1B6813F4806FF8
:1010500062D1FFF7FFF8801B0228F5D9032308E2CD
:10106000294A136843F48033136075E703F1804322
:10107000A3F53C331A6842F480221A601A6842F4DD
:1010800080321A6068E7FFF7E5F807461E4B1B68D9
:1010900013F4003FC5D0FFF7DDF8C01B6428F5D975
:1010A0000323E6E1022EC4D1174B1B6813F4806FB3
:1010B00003D0E368002B00F0D981134A536823F072
:1010C000F853216943EA01635360236813F0080F62
:1010D00056D06369002B3CD00B4AD2F8943043F0D1
:1010E0000103C2F89430FFF7B5F80646064BD3F873
:1010F000943013F0020F43D1FFF7ACF8801B0228A5
:10110000F4D90323B5E100BF00100240102300080A
:101110000800002004000020B64A536823F0F8536A
:10112000216943EA01635360CFE7B24A136823F4AD
:1011300080731360FFF78EF80646AE4B1B6813F4FE
:10114000806FC2D0FFF786F8801B0228F5D90323F1
:101150008FE1A84AD2F8943023F00103C2F894300A
:10116000FFF778F80646A34BD3F8943013F0020F3C
:1011700006D0FFF76FF8801B0228F4D9032378E12B
:10118000236813F0040F7AD09A4B9B6D13F0805FA5
:101190000BD1984B9A6D42F080529A659B6D03F08B
:1011A00080530193019B012600E00026924B1B68AF
:1011B00013F4807F26D0A368012B37D0052B3DD0B8
:1011C0008C4BD3F8902022F00102C3F89020D3F882
:1011D000902022F00402C3F89020A368002B3BD09B
:1011E000FFF738F80746834BD3F8903013F0020F1F
:1011F00044D1FFF72FF8C01B41F288339842F2D94F
:10120000032336E17C4A136843F480731360FFF7CD
:1012100021F80746784B1B6813F4807FCBD1FFF78A
:1012200019F8C01B0228F5D9032322E1714AD2F82C
:10123000903043F00103C2F89030CEE76D4BD3F805
:10124000902042F00402C3F89020D3F8902042F09E
:101250000102C3F89020C0E7FEF7FCFF0746654B8C
:10126000D3F8903013F0020F08D0FEF7F3FFC01B45
:1012700041F288339842F2D90323FAE0E6B92368B1
:1012800013F0200F35D0636AE3B15A4AD2F8983090
:1012900043F00103C2F89830FEF7DCFF0646554BD9
:1012A000D3F8983013F0020F23D1FEF7D3FF801B41
:1012B0000228F4D90323DCE04E4A936D23F08053D7
:1012C0009365DCE74B4AD2F8983023F00103C2F86B
:1012D0009830FEF7BFFF0646464BD3F8983013F020
:1012E000020F06D0FEF7B6FF801B0228F4D90323B5
:1012F000BFE0A36A002B00F0BB800C2D6FD0022B47
:1013000023D03C4B1A6822F080721A601B6813F0DD
:10131000006F04D1374AD36823F00303D360354A02
:10132000D36823F0887323F48033D360FEF792FFF1
:101330000446304B1B6813F0007F4ED0FEF78AFF47
:10134000001B0228F5D9032393E02A4A136823F0EF
:1013500080731360FEF77EFF0546264B1B6813F073
:10136000007F06D0FEF776FF401B0228F5D9032345
:101370007FE0204AD36821491940E36A206B013895
:1013800043EA0013606B43EA0023E06B4008013836
:1013900043EA4053206C4008013843EA4063A06BA5
:1013A00043EAC0630B43D360136843F08073136058
:1013B000D36843F08073D360FEF74CFF04460D4BB7
:1013C0001B6813F0007F06D1FEF744FF001B0228C4
:1013D000F5D903234DE000234BE0002349E0012B26
:1013E0004AD0044BDB6803F00301E26A914207D064
:1013F00001233EE000100240007000408C809D01FF
:1014000003F07002216B0139B2EB011F01D00123FF
:101410002FE003F4FE42616BB2EB012F01D00123F8
:1014200027E003F07842A16BB2EBC16F01D001233A
:101430001FE003F4C001E26B5208013AB1EB425FD6
:1014400001D0012315E003F0C063226C5208013A79
:10145000B3EB426F12D001230BE001231846704713
:10146000012306E0012304E0012302E0012300E060
:101470000023184603B0F0BD0123FAE70023F8E784
:10148000002800F09B8070B504464E4B1B6803F0AB
:1014900007038B420CD24B4A136823F007030B431C
:1014A0001360136803F007038B4201D0012070BD65
:1014B0000D46236813F0010F39D06368032B09D060
:1014C000022B26D063BB404A126812F0020F06D1ED
:1014D0000120ECE73C4A126812F0007F70D03A49D4
:1014E0008A6822F0030213438B60FEF7B3FE0646C0
:1014F000354B9B6803F00C036268B3EB820F16D088
:10150000FEF7A8FE801B41F288339842F0D90320F1
:10151000CDE72D4A126812F4003FE0D10120C6E762
:10152000294A126812F4806FD9D10120BFE72368DD
:1015300013F0020F06D0244A936823F0F003A16849
:101540000B4393601F4B1B6803F00703AB420CD99E
:101550001C4A136823F007032B431360136803F03E
:101560000703AB4201D00120A1E7236813F0040F69
:1015700006D0154A936823F4E063E1680B43936057
:10158000236813F0080F07D00F4A936823F46053C1
:10159000216943EAC1039360FFF7FAFB0A4B9B689A
:1015A000C3F30313094AD35C03F01F03D840084B6D
:1015B0001860084B1868FEF70BFE78E701207047AB
:1015C000012074E7002002400010024010230008B0
:1015D0000800002004000020F8B5594BDB6813F028
:1015E000030F18D0564BDB6803F0030302689342E5
:1015F00002D001252846F8BD002A00F09F80504BFC
:10160000DB68C3F3021301334268934201D0012522
:10161000F0E700251AE00368022B58D0032B5DD0B9
:10162000012B01D001250FE0454A126812F0020F8C
:1016300060D0434DEA6822F073024468013C43EAFB
:1016400004131343EB600025002DD3D10F4604464D
:101650003B4A136823F080631360FEF7FBFD0646E8
:10166000374B1B6813F0006F05D0FEF7F3FD801BAE
:101670000228F5D90325002DBCD1002F3CD13049DB
:101680000B6923F0784323F4FE43A068E268D20696
:1016900042EA002213430B61294A136843F0806336
:1016A0001360FEF7D7FD0646254B1B6813F0006F4D
:1016B00005D1FEF7CFFD801B0228F5D90325002DAB
:1016C00098D11F4A1369A1690B43136192E71C4A21
:1016D000126812F4806FACD10125B5E7184A126880
:1016E00012F4003FA5D1164A126812F4802FA0D13F
:1016F0000125A9E70125A7E7012F0FD010480269AE
:1017000022F0C06222F4FE42A16863695B08013BDB
:101710005B0643EA012313430361BDE708480269FE
:1017200022F4C00222F4FE42A16823695B08013B57
:101730005B0543EA012313430361ADE7012559E744
:10174000001002402DE9F04182B00446036813F412
:10175000006F26D0436CB3F5000F06D0B3F5400FF1
:101760001DD09BB1012637461DE0BB4AD36843F428
:101770008033D3600027B84AD2F8883023F440037E
:10178000616C0B43C2F8883000260CE00021043065
:10179000FFF722FF07460028EDD0064603E00027AA
:1017A000E9E700263746236813F4003F6BD0AA4BC5
:1017B0009B6D13F0805F4CD1A74B9A6D42F0805225
:1017C0009A659B6D03F080530193019B4FF00108D4
:1017D000A24A136843F480731360FEF73BFD05468D
:1017E0009E4B1B6813F4807F05D1FEF733FD401B31
:1017F0000228F5D90327002F40D1974BD3F890301A
:1018000013F4407315D0A26D9A4212D0924AD2F8C6
:10181000903023F44073D2F8901041F48031C2F834
:101820009010D2F8901021F48031C2F89010C2F8D4
:10183000903013F0010F0FD1002F40F0E380864A63
:10184000D2F8903023F44073A16D0B43C2F890306E
:1018500015E04FF00008BBE7FEF7FCFC05467E4BA9
:10186000D3F8903013F0020FE6D1FEF7F3FC401BE3
:1018700041F288339842F2D90327DDE73E46B8F1BA
:10188000000F40F0C180236813F0010F08D0724AA6
:10189000D2F8883023F00303216A0B43C2F8883062
:1018A000236813F0020F08D06B4AD2F8883023F077
:1018B0000C03616A0B43C2F88830236813F0040FED
:1018C00008D0654AD2F8883023F03003A16A0B4370
:1018D000C2F88830236813F0200F08D05E4AD2F88F
:1018E000883023F44063E16A0B43C2F888302368F0
:1018F00013F4007F08D0584AD2F8883023F44023EC
:10190000E16B0B43C2F88830236813F4806F08D072
:10191000514AD2F8883023F44013216C0B43C2F8AB
:101920008830236813F0400F08D04B4AD2F8883033
:1019300023F44053216B0B43C2F88830236813F023
:10194000800F08D0444AD2F8883023F44043616BBA
:101950000B43C2F88830236813F4807F08D03E4AD6
:10196000D2F8883023F44033A16B0B43C2F888309F
:10197000236813F4002F0FD0374AD2F8883023F0B1
:101980004063A16C0B43C2F88830A36CB3F1006FC5
:1019900040D0B3F1806F42D0236813F4802F0FD072
:1019A0002D4AD2F8883023F04063E16C0B43C2F833
:1019B0008830E36CB3F1006F39D0B3F1806F3BD066
:1019C000236813F4804F0CD0234AD2F8883023F0D8
:1019D0004053216D0B43C2F88830236DB3F1805F13
:1019E00032D0236813F4004F08D01B4AD2F8883055
:1019F00023F08043616D0B43C2F88830304602B05B
:101A0000BDE8F0813E463AE7134A936D23F08053D8
:101A1000936538E7D36843F48013D360BCE70121B2
:101A2000201DFFF7D9FD0028B6D00646B4E7D368DD
:101A300043F48013D360C3E70121201DFFF7CCFDE1
:101A40000028BDD00646BBE70221201DFFF7C4FDDC
:101A50000028C6D00646C4E70010024000700040CF
:101A600038B504460268D36823F0A003D360FEF7BC
:101A7000F1FB05462368DB6813F0200F07D1FEF762
:101A8000E9FB401BB0F57A7FF4D9032000E0002089
:101A900038BD70B50368DA6812F0400F02D0002537
:101AA000284670BD04464FF0FF32DA60FEF7D2FBE5
:101AB000064600252368DB6813F0400FF0D1032DA4
:101AC000EED0FEF7C7FB801BB0F57A7FF2D9032575
:101AD00084F82150EEE7000010B50446114BDA6897
:101AE00022F08002DA609B6813F0200F07D1FFF725
:101AF000B7FF0346A0B1032384F8213010E0094A60
:101B0000936823F020039360FFF7AAFF034610B108
:101B1000032384F8213003498A6842F020028A6056
:101B2000184610BD0028004038B500284AD00446A9
:101B300090F821307BB1022384F821302368CA2237
:101B40005A62236853225A622046FFF7A2FF0346D7
:101B500030B1184638BD80F8203000F097FAEAE737
:101B60002268936823F4E00323F040039360216824
:101B70008A68636820690343A069034313438B6049
:101B80002368E2681A6122681369A16843EA014385
:101B900013612046FFF7A0FF03460028D9D1216832
:101BA000CA6C22F00302CA642068C26CE1696569EC
:101BB00029430A43C2642268FF215162012284F84A
:101BC0002120C6E70123C4E7002853D010B50446FE
:101BD0000023836290F85D30002B40D0022384F80C
:101BE0005D302268136823F040031360E368B3F5A7
:101BF000E06F39D90022B3F5706F04D0B3F5E06F10
:101C000001D00021A162216B21B9B3F5E06F2ED97B
:101C1000022323636368A1680B4321690B43616955
:101C20000B43A16901F400710B43E1690B43216A85
:101C30000B43A06A216803430B60638B03F004032A
:101C4000616A0B43616B0B43E1680B4321681343EB
:101C50004B6000202066012384F85D3010BD80F8C1
:101C60005C3000F025FAB9E74FF48052C3E7012356
:101C70002363CFE70120704700B5AFB024220021D5
:101C80001EA800F017FB0021189119911A911B91C1
:101C90001C915C2201A800F00DFB0A231D934FF458
:101CA00080732093102221920121229102232793F5
:101CB000289329912A9207222B922C9304232D9367
:101CC0001DA8FFF7BFF868BB0F23189303211991D4
:101CD00000231A931B931C9318A8FFF7D1FB20BB7A
:101CE0004FF4103301934FF0805315934FF400736A
:101CF00017930223029301220392082204920722DF
:101D00000592069307934FF08073089301A8FFF79D
:101D100019FD68B94FF40070FEF7AAFF58B92FB04B
:101D20005DF804FB00F036F9CEE700F033F9D7E7B1
:101D300000F030F9EEE700F02DF9F0E700B587B0DC
:101D4000002300930193029303930493059319488E
:101D5000194A026043608360C360036104224261E8
:101D6000037643760122C26180F820308362C36229
:101D700080F83030436380F83830FEF785FA90B948
:101D80000E4B009306230193002302937F220392BC
:101D900004220492059369460648FEF767FB28B9BA
:101DA00007B05DF804FB00F0F5F8E9E700F0F2F8A1
:101DB000F6E700BFA8000020000004502000F01447
:101DC00000B58BB02422002101A800F073FA12485C
:101DD000124B0360FEF7C6FDA8B9002201920292E1
:101DE00003920492059201A90B48FEF7CDFD68B954
:101DF00000230493102201A90748FEF7C5FD40B94E
:101E00000BB05DF804FB00F0C5F8E6E700F0C2F89F
:101E1000EEE700F0BFF8F3E7300000200074004068
:101E200008B50A480A4B0360402343607F23836060
:101E3000FF23C3600023036143618361C361FFF734
:101E400073FE00B908BD00F0A5F8FBE70C01002007
:101E50000028004008B51048104B03604FF482730F
:101E60004360002383604FF44072C26003614361AA
:101E70004FF480228261C36103624362836207225E
:101E8000C262036308234363FFF79EFE00B908BDE7
:101E900000F080F8FBE700BF300100200030014077
:101EA00008B50D480D4B03600023436083604FF479
:101EB0004072C26003614361836103624362836273
:101EC0000722C26203634363FFF77EFE00B908BDC9
:101ED00000F060F8FBE700BF44000020003C004039
:101EE00070B588B000240394049405940694079474
:101EF0001B4BDA6C42F00102DA64DA6C02F0010288
:101F00000192019ADA6C42F00202DA64DB6C03F0AF
:101F100002030293029B134E224602213046FEF733
:101F200099FE22464FF480714FF09040FEF792FEEA
:101F300002230393012504950594069403A93046D2
:101F4000FEF7BEFD4FF48073039304950594069449
:101F500003A94FF09040FEF7B3FD08B070BD00BF7D
:101F6000001002400004004808B5FEF757F9FFF7DB
:101F700083FEFFF7B5FFFFF7E1FEFFF721FFFFF755
:101F80004FFFFFF767FFFFF78BFF08BD08B5FFF7AF
:101F9000EBFFFEE77047000082B00A4B1A6E42F07A
:101FA00001021A661A6E02F001020092009A9A6DFE
:101FB00042F080529A659B6D03F080530193019B20
:101FC00002B070470010024000B589B000230393AF
:101FD00004930593069307930268134B9A4202D029
:101FE00009B05DF804FB03F17043A3F5F833DA6C34
:101FF00042F40052DA64DA6C02F400520192019A5F
:10200000DA6C42F00102DA64DB6C03F00103029344
:10201000029B052303930B23049303A94FF09040E5
:10202000FEF74EFDDCE700BF0000045000B589B0AC
:102030000023039304930593069307930268124BBE
:102040009A4202D009B05DF804FB03F5CE339A6DD5
:1020500042F000529A659A6D02F000520192019A84
:10206000DA6C42F00102DA64DB6C03F001030293E4
:10207000029B302303930323049303A94FF0904062
:10208000FEF71EFDDEE700BF007400400268064B4D
:102090009A4200D07047054AD2F8903043F400438A
:1020A000C2F89030F6E700BF002800400010024060
:1020B00070B58CB000230793089309930A930B9390
:1020C0000368394A934204D0384A934236D00CB060
:1020D00070BD374B1A6E42F480521A661A6E02F4C3
:1020E00080520192019ADA6C42F00102DA64DA6CF1
:1020F00002F001020292029ADA6C42F00202DA6401
:10210000DB6C03F002030393039BC22307930226B5
:10211000089603250A9505240B9407A94FF09040D3
:10212000FEF7CEFC012307930896002309930A9536
:102130000B9407A91F48FEF7C3FCC8E71C4B9A6D18
:1021400042F400429A659A6D02F400420492049AA5
:10215000DA6C42F00102DA64DA6C02F001020592F4
:10216000059ADA6C42F00202DA64DB6C03F00203D7
:102170000693069B4FF40043079302260896032517
:102180000A9506240B9407A94FF09040FEF798FC9F
:10219000382307930896002309930A950B9407A9FF
:1021A0000448FEF78DFC92E700300140003C0040FF
:1021B00000100240000400487047FEE7FEE7FEE71B
:1021C000FEE770477047704708B5FEF737F808BD5F
:1021D0000F49D1F8883043F47003C1F888300D4BB3
:1021E0001A6842F001021A60002098601A6822F012
:1021F000A85222F410221A604FF48052DA601A6852
:1022000022F480221A6098614FF000638B6070475F
:1022100000ED00E000100240DFF834D0002103E0C0
:102220000C4B5B58435004310B480C4B42189A42FC
:10223000F6D30B4A02E0002342F8043B094B9A42D2
:10224000F9D3FFF7C5FF00F011F8FFF79FFEFEE797
:1022500000000120382300080000002010000020AA
:102260001000002094010020FEE7000070B50D4E24
:102270000D4CA41BA4100025A54209D10B4E0C4CFB
:1022800000F020F8A41BA4100025A54205D170BDC4
:1022900056F8253098470135EEE756F8253098472F
:1022A0000135F2E728230008282300082823000826
:1022B0002C23000802440346934200D1704703F8E0
:1022C000011BF9E7F8B500BFF8BC08BC9E46704793
:1022D000F8B500BFF8BC08BC9E467047000000007F
:1022E000A0860100400D0300801A060000350C0096
:1022F00040420F0080841E0000093D0000127A0059
:102300000024F40000366E010048E801006CDC0295
:102310000000000000000000010203040607080995
:082320000000000001020304AB
:08232800B501000800000000EF
:0823300091010008000000000B
:10233800010000001000000000093D00000000003E
:0400000508002219B4
:00000001FF
